{
  "_format": "hh-sol-artifact-1",
  "contractName": "Getter",
  "sourceName": "Contracts/Getter.sol",
  "abi": [
    {
      "inputs": [
        {
          "internalType": "string",
          "name": "M",
          "type": "string"
        }
      ],
      "stateMutability": "nonpayable",
      "type": "constructor"
    },
    {
      "inputs": [
        {
          "internalType": "uint256",
          "name": "",
          "type": "uint256"
        }
      ],
      "name": "Array",
      "outputs": [
        {
          "internalType": "string",
          "name": "",
          "type": "string"
        }
      ],
      "stateMutability": "view",
      "type": "function"
    },
    {
      "inputs": [],
      "name": "GetArray",
      "outputs": [
        {
          "internalType": "string[]",
          "name": "",
          "type": "string[]"
        }
      ],
      "stateMutability": "view",
      "type": "function"
    },
    {
      "inputs": [],
      "name": "GetMessage",
      "outputs": [
        {
          "internalType": "string",
          "name": "",
          "type": "string"
        }
      ],
      "stateMutability": "view",
      "type": "function"
    },
    {
      "inputs": [],
      "name": "Message",
      "outputs": [
        {
          "internalType": "string",
          "name": "",
          "type": "string"
        }
      ],
      "stateMutability": "view",
      "type": "function"
    },
    {
      "inputs": [
        {
          "internalType": "string",
          "name": "M",
          "type": "string"
        }
      ],
      "name": "SetMessage",
      "outputs": [],
      "stateMutability": "nonpayable",
      "type": "function"
    }
  ],
  "bytecode": "0x60806040523480156200001157600080fd5b5060405162001162380380620011628339818101604052810190620000379190620001e3565b80600090816200004891906200047f565b505062000566565b6000604051905090565b600080fd5b600080fd5b600080fd5b600080fd5b6000601f19601f8301169050919050565b7f4e487b7100000000000000000000000000000000000000000000000000000000600052604160045260246000fd5b620000b9826200006e565b810181811067ffffffffffffffff82111715620000db57620000da6200007f565b5b80604052505050565b6000620000f062000050565b9050620000fe8282620000ae565b919050565b600067ffffffffffffffff8211156200012157620001206200007f565b5b6200012c826200006e565b9050602081019050919050565b60005b83811015620001595780820151818401526020810190506200013c565b60008484015250505050565b60006200017c620001768462000103565b620000e4565b9050828152602081018484840111156200019b576200019a62000069565b5b620001a884828562000139565b509392505050565b600082601f830112620001c857620001c762000064565b5b8151620001da84826020860162000165565b91505092915050565b600060208284031215620001fc57620001fb6200005a565b5b600082015167ffffffffffffffff8111156200021d576200021c6200005f565b5b6200022b84828501620001b0565b91505092915050565b600081519050919050565b7f4e487b7100000000000000000000000000000000000000000000000000000000600052602260045260246000fd5b600060028204905060018216806200028757607f821691505b6020821081036200029d576200029c6200023f565b5b50919050565b60008190508160005260206000209050919050565b60006020601f8301049050919050565b600082821b905092915050565b600060088302620003077fffffffffffffffffffffffffffffffffffffffffffffffffffffffffffffffff82620002c8565b620003138683620002c8565b95508019841693508086168417925050509392505050565b6000819050919050565b6000819050919050565b6000620003606200035a62000354846200032b565b62000335565b6200032b565b9050919050565b6000819050919050565b6200037c836200033f565b620003946200038b8262000367565b848454620002d5565b825550505050565b600090565b620003ab6200039c565b620003b881848462000371565b505050565b5b81811015620003e057620003d4600082620003a1565b600181019050620003be565b5050565b601f8211156200042f57620003f981620002a3565b6200040484620002b8565b8101602085101562000414578190505b6200042c6200042385620002b8565b830182620003bd565b50505b505050565b600082821c905092915050565b6000620004546000198460080262000434565b1980831691505092915050565b60006200046f838362000441565b9150826002028217905092915050565b6200048a8262000234565b67ffffffffffffffff811115620004a657620004a56200007f565b5b620004b282546200026e565b620004bf828285620003e4565b600060209050601f831160018114620004f75760008415620004e2578287015190505b620004ee858262000461565b8655506200055e565b601f1984166200050786620002a3565b60005b8281101562000531578489015182556001820191506020850194506020810190506200050a565b868310156200055157848901516200054d601f89168262000441565b8355505b6001600288020188555050505b505050505050565b610bec80620005766000396000f3fe608060405234801561001057600080fd5b50600436106100575760003560e01c806303e33b531461005c57806362b8df6a1461007a57806388fabb3a14610098578063a1690e23146100b4578063a1fb1de9146100e4575b600080fd5b610064610102565b6040516100719190610480565b60405180910390f35b610082610194565b60405161008f91906105ae565b60405180910390f35b6100b260048036038101906100ad9190610719565b61026d565b005b6100ce60048036038101906100c99190610798565b6102b6565b6040516100db9190610480565b60405180910390f35b6100ec610362565b6040516100f99190610480565b60405180910390f35b606060008054610111906107f4565b80601f016020809104026020016040519081016040528092919081815260200182805461013d906107f4565b801561018a5780601f1061015f5761010080835404028352916020019161018a565b820191906000526020600020905b81548152906001019060200180831161016d57829003601f168201915b5050505050905090565b60606001805480602002602001604051908101604052809291908181526020016000905b828210156102645783829060005260206000200180546101d7906107f4565b80601f0160208091040260200160405190810160405280929190818152602001828054610203906107f4565b80156102505780601f1061022557610100808354040283529160200191610250565b820191906000526020600020905b81548152906001019060200180831161023357829003601f168201915b5050505050815260200190600101906101b8565b50505050905090565b600160009080600181540180825580915050600190039060005260206000200160009091909190915090816102a291906109fc565b5080600090816102b29190610ae4565b5050565b600181815481106102c657600080fd5b9060005260206000200160009150905080546102e1906107f4565b80601f016020809104026020016040519081016040528092919081815260200182805461030d906107f4565b801561035a5780601f1061032f5761010080835404028352916020019161035a565b820191906000526020600020905b81548152906001019060200180831161033d57829003601f168201915b505050505081565b6000805461036f906107f4565b80601f016020809104026020016040519081016040528092919081815260200182805461039b906107f4565b80156103e85780601f106103bd576101008083540402835291602001916103e8565b820191906000526020600020905b8154815290600101906020018083116103cb57829003601f168201915b505050505081565b600081519050919050565b600082825260208201905092915050565b60005b8381101561042a57808201518184015260208101905061040f565b60008484015250505050565b6000601f19601f8301169050919050565b6000610452826103f0565b61045c81856103fb565b935061046c81856020860161040c565b61047581610436565b840191505092915050565b6000602082019050818103600083015261049a8184610447565b905092915050565b600081519050919050565b600082825260208201905092915050565b6000819050602082019050919050565b600082825260208201905092915050565b60006104ea826103f0565b6104f481856104ce565b935061050481856020860161040c565b61050d81610436565b840191505092915050565b600061052483836104df565b905092915050565b6000602082019050919050565b6000610544826104a2565b61054e81856104ad565b935083602082028501610560856104be565b8060005b8581101561059c578484038952815161057d8582610518565b94506105888361052c565b925060208a01995050600181019050610564565b50829750879550505050505092915050565b600060208201905081810360008301526105c88184610539565b905092915050565b6000604051905090565b600080fd5b600080fd5b600080fd5b600080fd5b7f4e487b7100000000000000000000000000000000000000000000000000000000600052604160045260246000fd5b61062682610436565b810181811067ffffffffffffffff82111715610645576106446105ee565b5b80604052505050565b60006106586105d0565b9050610664828261061d565b919050565b600067ffffffffffffffff821115610684576106836105ee565b5b61068d82610436565b9050602081019050919050565b82818337600083830152505050565b60006106bc6106b784610669565b61064e565b9050828152602081018484840111156106d8576106d76105e9565b5b6106e384828561069a565b509392505050565b600082601f830112610700576106ff6105e4565b5b81356107108482602086016106a9565b91505092915050565b60006020828403121561072f5761072e6105da565b5b600082013567ffffffffffffffff81111561074d5761074c6105df565b5b610759848285016106eb565b91505092915050565b6000819050919050565b61077581610762565b811461078057600080fd5b50565b6000813590506107928161076c565b92915050565b6000602082840312156107ae576107ad6105da565b5b60006107bc84828501610783565b91505092915050565b7f4e487b7100000000000000000000000000000000000000000000000000000000600052602260045260246000fd5b6000600282049050600182168061080c57607f821691505b60208210810361081f5761081e6107c5565b5b50919050565b600081549050610834816107f4565b9050919050565b60008190508160005260206000209050919050565b60008190508160005260206000209050919050565b60006020601f8301049050919050565b600082821b905092915050565b6000600883026108b27fffffffffffffffffffffffffffffffffffffffffffffffffffffffffffffffff82610875565b6108bc8683610875565b95508019841693508086168417925050509392505050565b6000819050919050565b60006108f96108f46108ef84610762565b6108d4565b610762565b9050919050565b6000819050919050565b610913836108de565b61092761091f82610900565b848454610882565b825550505050565b600090565b61093c61092f565b61094781848461090a565b505050565b5b8181101561096b57610960600082610934565b60018101905061094d565b5050565b601f8211156109b0576109818161083b565b61098a84610865565b81016020851015610999578190505b6109ad6109a585610865565b83018261094c565b50505b505050565b600082821c905092915050565b60006109d3600019846008026109b5565b1980831691505092915050565b60006109ec83836109c2565b9150826002028217905092915050565b818103610a0a575050610ae2565b610a1382610825565b67ffffffffffffffff811115610a2c57610a2b6105ee565b5b610a3682546107f4565b610a4182828561096f565b6000601f831160018114610a705760008415610a5e578287015490505b610a6885826109e0565b865550610adb565b601f198416610a7e87610850565b9650610a898661083b565b60005b82811015610ab157848901548255600182019150600185019450602081019050610a8c565b86831015610ace5784890154610aca601f8916826109c2565b8355505b6001600288020188555050505b5050505050505b565b610aed826103f0565b67ffffffffffffffff811115610b0657610b056105ee565b5b610b1082546107f4565b610b1b82828561096f565b600060209050601f831160018114610b4e5760008415610b3c578287015190505b610b4685826109e0565b865550610bae565b601f198416610b5c8661083b565b60005b82811015610b8457848901518255600182019150602085019450602081019050610b5f565b86831015610ba15784890151610b9d601f8916826109c2565b8355505b6001600288020188555050505b50505050505056fea264697066735822122035f1ab4edc6be36a8bedc98f0b9cf23b416e25f4734bce9350b95b28547c2d0a64736f6c63430008130033",
  "linkReferences": {},
  "deployedLinkReferences": {}
}